0000588088643357008643357P20060907G ggggg                                 2007032799700000000000
0121212088699346008699346P20051124ABCD Dol Dam Schimmel Edelman Kermans en2007032799700000000000
0121545088659321008659321P20070614FS Jares                                2007061413000000000000
0122222088699150008699150P20051109P van Veen                              2007032799700000000000
0123456088629489008629489P20060216H h                                     2007032799700000000000
0123456088646951008646951P20061121P P                                     2007032713000000000000
0123456088699139008699139P20051109S s                                     2007032799700000000000
0123456088699284008699284P20051118FDS gilpe                               2005112411300000000000
0147744004204654004204654P20070619HH Dr Leeuwenwortel                     2007061913000000000000
0147744004204655004204655P20070619GEEN Idee hommel                        2007061913000000000000
0159858088647954008647954P20061130F Lodewijkx                             2007032799700000000000
0223355004200048004200048P20060911P de Clown                              2007032799700000000000
0223355004200049004200049P20060911P de Clown                              2007032799700000000000
