0000588088643357008643357P20060907G ggggg                                 2007032799700000000000
0121212088699346008699346P20051124ABCD Dol Dam Schimmel Edelman Kermans en2007032799700000000000
0121545088659321008659321P20070614FS Jares                                2007061413000000000000
0122222088699150008699150P20051109P van Veen                              2007032799700000000000
0123456088629489008629489P20060216H h                                     2007032799700000000000
0123456088646951008646951P20061121P P                                     2007032713000000000000
0123456088699139008699139P20051109S s                                     2007032799700000000000
0123456088699284008699284P20051118FDS gilpe                               2005112411300000000000
0147744004204654004204654P20070619HH Dr Leeuwenwortel                     2007061913000000000000
0147744004204655004204655P20070619GEEN Idee hommel                        2007061913000000000000
0159858088647954008647954P20061130F Lodewijkx                             2007032799700000000000
0223355004200048004200048P20060911P de Clown                              2007032799700000000000
0223355004200049004200049P20060911P de Clown                              2007032799700000000000
0223355004200050004200050P20060911P de Clown                              2006091111000000000000
0223355004298001004298001P20051118BT slopsema                             2007040915200000000000
0223355088628978008628978P20060216B Pet                                   2007032799700000000000
0223355088629488008629488P20060216RA Cuperus                              2007032799700000000000
0223355088629490008629490P20060216B p                                     2007032799700000000000
0223355088641877008641877P20060911P de Clown                              2007032799700000000000
0223355088641878008641878P20060911P de Clown                              2007032799700000000000
0223355088641879008641879P20060911M Lou                                   2007032799700000000000
0223355088641880008641880P20060911P de Clown                              2007032799700000000000
0223355088699127008699127P20051108G Grootsz                               2007032799700000000000
0223355088699128008699128P20051108G gaaaaaaaa                             2007032799700000000000
0223355088699130008699130P20051108H hhh                                   2007032799700000000000
0223355088699132008699132P20051108F Faaaaaaa                              2007032799700000000000
0223355088699133008699133P20051109F Faaa                                  2007032799700000000000
0223355088699134008699134P20051109H Haaa                                  2007032799700000000000
0223355088699135008699135P20051109H hhhhhhhh                              2007032799700000000000
0223355088699140008699140P20051109F de Groot                              2007032799700000000000
0223355088699142008699142P20051109F de Groot                              2007032799700000000000
0223355088699143008699143P20051109G Geniet                                2007032799700000000000
0223355088699144008699144P20051109F Grootsch                              2007032799700000000000
0223355088699146008699146P20051109G ggg                                   2007032799700000000000
0223355088699151008699151P20051109G Groots                                2007032799700000000000
0223355088699168008699168P20051109G gaaa                                  2007032799700000000000
0223355088699170008699170P20051109G Gaaaa                                 2007032799700000000000
0223355088699172008699172P20051109G Gaa                                   2007032799700000000000
0223355088699174008699174P20051109G gggggggg                              2007032799700000000000
0223355088699176008699176P20051109F Faa                                   2007032799700000000000
0223355088699177008699177P20051109G gg                                    2007032799700000000000
0223355088699179008699179P20051109G ggg                                   2007032799700000000000
0223355088699180008699180P20051109F Effe                                  2007032799700000000000
0223355088699182008699182P20051109F effe                                  2007032799700000000000
0223355088699183008699183P20051114G gaaa                                  2007032799700000000000
0223355088699184008699184P20051114K de JOng                               2007032799700000000000
0223355088699186008699186P20051114G egge                                  2007032799700000000000
0223355088699187008699187P20051114G Gaaa                                  2007032799700000000000
0223355088699189008699189P20051114F de Puk                                2007032799700000000000
0223355088699190008699190P20051114F van der Kuit                          2007032799700000000000
0223355088699192008699192P20051114H hh                                    2007032799700000000000
0223355088699193008699193P20051114OP de Agt                               2007032799700000000000
0223355088699195008699195P20051114P Vloet                                 2007032799700000000000
0223355088699196008699196P20051114P Vloet                                 2007032799700000000000
0223355088699199008699199P20051114G Zwagers                               2007032799700000000000
0223355088699267008699267P20051118FHM Geertszn                            2005112411300000000000
0223355088699285008699285P20051118F Reeg                                  2005112411300000000000
0223355088699286008699286P20051118F Effen                                 2005112411300000000000
0223355088699288008699288P20051118F Effen                                 2005112411300000000000
0223355088699289008699289P20051118F Effen                                 2005112411300000000000
0223355088699290008699290P20051118F Effen                                 2005112411300000000000
0223355088699291008699291P20051118F Lodewijkx                             2005112411300000000000
0223355088699292008699292P20051118F llll                                  2005112411300000000000
0223355088699347008699347P20051124T Arentz                                2007032799700000000000
0223355088699348008699348P20051124AAA van a                               2007032799700000000000
0223355088699349008699349P20051124EM Geertszn                             2007032799700000000000
0223355088699350008699350P20051124AAA van a                               2007040915200000000000
0223355088699352008699352P20051124F de effe                               2007032799700000000000
0223355088699451008699451P20060103T Tafel                                 2007032799700000000000
0223356088699188008699188P20051114P de Jong                               2007032799700000000000
0300009004200239004200239P20061121HKH kjhk                                2006112111000000000000
0300009004200243004200243P20061121HKH kjhk                                2006112111000000000000
0300009088646909008646909P20061121KJ lkj                                  2007032799700000000000
0300074004200018004200018P20031216D de dekker                             2007040999700000000000
0300074004200019004200019P20031216TT testpersoon                          2007032713000000000000
0300074004200020004200020P20031216E van lelijk                            2007040999500000000000
0300074004200021004200021P20031216TT testpersoon                          2007032813300000000000
